:02000000772B5C
:10000800FF00030E83010317B6000A08B5008A0132
:100018008B1C13280130A0000030A1008B100B1C92
:100028003028061E1C2801300313ED000030EE00B6
:100038000313861E23280130D4000030D500061F84
:1000480029280130E1000030E200861F2F28013006
:10005800A1000030A2000B10031735088A00360EE5
:080068008300FF0E7F0E09006A
:0600700000000000080082
:0E007600213083120313FD00FD0B3F2808000C
:100084000F3083120313FC004730FD00FD0B48289A
:0A009400FC0B4828000000000800E3
:08009E00FA1FF2130030080004
:1000A60083120317BC1B5A28031388115C280313F9
:1000B600881503173C1B62280313081164280313D1
:1000C60008150317BC1A6A28031388106C28031333
:1000D600881403173C1A7228031308107428031394
:1000E60008146F18782808167928081288163820F8
:1000F60088120317BC198228031388118428031356
:10010600881503173C198A28031308118C28031332
:1001160008150317BC189228031388109428031394
:10012600881403173C189A28031308109C280313F5
:1001360008146F18A0280816A12808128816382057
:0E01460088126F1CA8284220A9283B20080020
:100154007B15FB1FB4280130F300F201F101F0011B
:08016400FA0DF20CFF30080057
:0E016C00F201F101F001F801F301003008008A
:06017A00FB15FF30080038
:10018000831203136F1003173B08BC0053206F1436
:02019000080065
:10019200FB14FB1FD328FF30F300F200F100F00044
:0801A200FA0DF20CFF30080019
:1001AA00A0017208031DEA287108F2007008F10024
:1001BA00F001A0157208031DEA287108F200F10186
:1001CA00A011201672080319F8282008F302031D4B
:1001DA00031CFC280310F21B0029F00DF10DF20D8F
:1001EA00F30BF028FC280130FC00B620032902306A
:0E01FA00FC00AA2003290430FC004F2008005E
:100208000E3083120313FD00FD0B082900000800BF
:0E021800831203172E088A002D0882000800AA
:1002260083120313FB017308031D770803196A2958
:1002360072087606FA007708F3077E30031C272932
:10024600F30203186D292A29F302031C7029720888
:10025600F8007108FC007008FD00F817F617031087
:10026600F201F101F0011830A0007D1C4429740848
:10027600F00775080318750FF10776080318760F4F
:10028600F207F20CF10CF00CF80CFC0CFD0C031050
:10029600A00B3829F21B5429F80DF00DF10DF20DC3
:1002A600F3037B1B701C6629F81F6629F00A0319E5
:1002B600F10A0319F20A031D6629F20CF10CF00C7F
:1002C600F30A03196D29FA1FF2130030722901305F
:1002D600B62072290230C92072290430AA200000F3
:0202E60008000E
:1002E80083120313FA017308031D7A147708031D98
:1002F800FA147A080319C029033A03198B297A18C2
:100308008829F61FBE29BC29F21FBC29BE297208FC
:100318008039FA00F21376088039F6137A06031941
:1003280099297A080319BC29BE2977087302031989
:10033800A029031CB429B829760872020319A72931
:10034800031CB429B829750871020319AE29031CC6
:10035800B429B829740870020319C0290318B829E8
:10036800FA080319BE29BC29FA080319BC29BE29B1
:1003780003140800031008000314031508000800FC
:10038800831203137008F8007108F000F101F201FC
:10039800F301FB01FC019630F300FA01F01FDA29A2
:1003A800F809F009F80A0319F00AFA177008F100B9
:0C03B8007808F000F801F201D5200800E0
:1003C400831203139F01C0309F044209F000700898
:1003D40083169F051F179F17831203173708F00012
:1003E400F00D7010F00D7010F00D70107008031304
:1003F4009F041F1404211F151F1D022A0000FE293B
:100404001F101E08F100F00183161E08F0040030CE
:04041400F1040800E7
:10041800831203137408003A031D272A7508003A4B
:10042800031D272A7608003A031D272A7708003A71
:10043800031D272AFF30F000FF30F1007F30F20063
:10044800FF30F300C22A8312031377080319B62A70
:1004580073080319B92A720876068039FA00F21768
:10046800F617A0017208F8007108FC007008FD007A
:100478007408FD027508031C750FFC027608031C3E
:10048800760FF802F801FC01FD01031C522A031043
:10049800F20CF10CF00CF80C0130A0007708F30214
:1004A800031C5C2A7E302007F3070318BC2A612A44
:1004B8007E302007F307031CBF2A1830FA07FD0D0A
:1004C800FC0DF80DF00DF10DF20DA00D7408F00201
:1004D8007508031C750FF1027608031C760FF202EB
:1004E800760DA004201C7A2A7D14852A7408F0074A
:1004F80075080318750FF10776080318760AF207CE
:100508007D10FA031F307A05031D632A7B1B7D1CAF
:10051800AC2A0310F00DF10DF20DA00D7408F002D5
:100528007508031C750FF1027608031C760FF2029A
:10053800760D20040139FD070318FC0A0319F80A8F
:10054800031DAC2AF80CFC0CFD0CF30A0319BC2A99
:10055800FA1FF8137808F2007C08F1007D08F00013
:100568000030C12A0130BD20C12A0230B620C12A7C
:0E0578000430C920C12A0830AA200000080063
:100586000C218A110A128000840AAD0A0319AE0AE8
:08059600F003031DC32A080055
:10059E008316031388120812081088100811881188
:1005AE008312881208128811081188100810422030
:1005BE0042204220881408148816382088124220BF
:1005CE008816382088124220881638208812422039
:1005DE000810881638208812422088163820881273
:1005EE008810881588163820881242208811081421
:1005FE008816382088120810881638208812422053
:10060E00881638208812081488163820881242203E
:10061E0008108816382088128815081588140814B2
:0C062E0088163820881242206F14080043
:10063A00FF3083120317A200FF30A300FF30A4008B
:10064A00FF3003139F01C0309F044209F000700875
:0E065A0083169F051F179F1783121F14080099
:10066800462B803083120317B700592BC030B700D0
:10067800592B9430B700592BD430B700592B803000
:10068800B700592B831203173708013A0319352B82
:100698003708023A03193A2B3708033A03193D2B56
:1006A8003708043A0319402B432B3803F000370866
:1006B800F0077008B7007008BC0053206F100317CC
:1006C800BA013A083907840000080319742B3A085C
:1006D800390784000008BB00C0200317BA0A652B3D
:0606E80003136F1408006B
:1006EE0050261330831603138500F33086008701DE
:1006FE00880183128501870188011D23CF220130D5
:10070E000317BC005320071087100711871107121B
:10071E00FE3081008B168316811601120B168B1577
:10072E008B17013083120317BC00532001300317BF
:10073E00B7000130B8003530B90034231530FB0056
:10074E004B30FC00BE30FD00FD0BAB2BFC0BAB2B7E
:10075E00FB0BAB2B00000710871007118711071238
:10076E000317B701E221700883120317AB0071085B
:10077E00AC00C4210030F4000030F5004830F60023
:10078E008530F70013210030F400C030F5007F30C3
:10079E00F6008830F7000C2270080317A7007108C6
:1007AE00A8007208A9007308AA000130B700E22160
:1007BE00700883120317A5007108A600C42100302B
:1007CE00F4000030F5004830F6008530F7001321B4
:1007DE000030F400C030F5007F30F6008830F700AE
:1007EE000C2270080317AF007108B0007208B10038
:1007FE007308B2000030F4000030F5002030F6002F
:10080E008530F70074210130031C0030F0007008B1
:10081E000319442C03172708F4002808F5002908AB
:10082E00F6002A08F7000030F0000030F1004830E2
:10083E00F2008430F30074210130031C0030F0000C
:10084E0070080319442C01300317BC0053200130EB
:10085E000317B7000130B8001030B900342315303B
:10086E00FB004B30FC00BE30FD00FD0B3C2CFC0BA6
:10087E003C2CFB0B3C2C00009E2C03172F08F40085
:10088E003008F5003108F6003208F7000030F000AD
:10089E000030F1005C30F2008430F300742101303E
:1008AE00031C0030F00070080319832C0030F40094
:1008BE000030F5002A30F6008530F70003172708C0
:1008CE00F0002808F1002908F2002A08F30074212C
:1008DE000130031C0030F00070080319832C013026
:1008EE000317BC00532001300317B7000130B800C6
:1008FE00D330B90034239E2C01300317BC00532093
:10090E0001300317B7000130B800C130B9003423ED
:10091E0087141F30FB007130FC001E30FD00FD0BF4
:10092E00962CFC0B962CFB0B962C00008710861C2D
:10093E00CB2C01300317BC00532001300317B70036
:10094E000130B8006330B900342307151530FB00B1
:10095E004B30FC00BE30FD00FD0BB32CFC0BB32C5A
:10096E00FB0BB32C0000071107160630FB001330EB
:10097E00FC00AD30FD00FD0BC22CFC0BC22CFB0BA2
:10098E00C22C0000000007120317200821040319CF
:10099E00FB2C0130BC00532001300317B70001308F
:1009AE00B800E330B900342307142930FB00963029
:1009BE00FC007F30FD00FD0BE22CFC0BE22CFB0B50
:1009CE00E22C071087151F30FB007130FC001E3023
:1009DE00FD00FD0BF02CFC0BF02CFB0BF02C0000A3
:1009EE0087110317A001A10103136D086E040319EB
:1009FE000F2D01300317BC00532001300317B70031
:100A0E000130B8005630B90034230710ED01EE0165
:100A1E00540855040319222D01300317BC0053202E
:100A2E0001300317B7000130B8004330B90034234A
:100A3E000710D401D501610862040319742D013029
:100A4E000317BC00532001300317B7000130B80064
:100A5E00B230B900342302300317B7000130B800AA
:100A6E00A030B900342307160317B301B401803048
:100A7E003406F00080307002031D472D053033021E
:100A8E000318712D03130714871407150430FB0088
:100A9E000C30FC003330FD00FD0B532DFC0B532DA1
:100AAE00FB0B532D000000000710871007110430B8
:100ABE00FB000C30FC003330FD00FD0B642DFC0BF5
:100ACE00642DFB0B642D000000000317B30A0319FD
:100ADE00B40A3E2D0313E101E20121082204031999
:100AEE008B2D07108710071187110712013003177E
:100AFE00BC00532001300317B7000130B80023307B
:100B0E00B9003423A101A2010B30FB002630FC00FA
:100B1E005D30FD00FD0B912DFC0B912DFB0B912DEE
:080B2E0000000000B22B9A2D1B
:100CA00021308400423083120313F000E330031735
:100CB000AD000530AE00C322A03084004330831263
:100CC0000313F000A0300317AD000530AE00C322BF
:100CD000103083178400103083120313F000253086
:100CE0000317AD000630AE00C322831363308400C7
:100CF0000C3083120313F00042300317AD000630AE
:100D0000AE00C322E33084000D3083120313F000E1
:100D100035300317AD000630AE00C32220308317F4
:100D20008400023083120313F0004E300317AD002D
:0A0D30000630AE00C3228313080052
:100B400056346534723469346634693465347234C9
:100B500020346C346534733420346234613463344B
:040B600073340034B6
:100B64002134213421342034453452345234453430
:0E0B74005534523420342134213421340034DD
:100B820044346534633468346534743420346934ED
:100B92006E3463346F347234723465346334743453
:040BA2006534003482
:100BA60044346534743465346334743469346F346E
:100BB6006E3420346D346534743461346C340034EE
:040BC60000340034C3
:100BCA00533479347334743465346D346534203471
:100BDA0065346E3420347634653469346C346C345C
:040BEA00653400343A
:100BEE00533479347334743465346D34653420344D
:0A0BFE00703472346534743400342E
:020C08000F34A7
:100C0A00533479347334743465346D346534203430
:100C1A0065346E3420347034613475347334653419
:020C2A00003494
:040C2C00003400345C
:100C3000543472346934203461346E346E34753413
:060C40006C346534003441
:040C46000034003442
:100C4A0044346534743465346334743469346F34C9
:100C5A006E34203470346C34613473347434003438
:100C6A00543472346934203465346E342034633435
:0A0C7A006F347534723473340034A3
:100C8400423461346334203470346C3465346934F0
:040C94006E34003486
:040C980000340034F0
:040C9C0000340034EC
:02400E007A3BFB
:00000001FF
